:100000000C942A000C943F000C943F000C943F0089
:100010000C943F000C943F000C943F000C943F0064
:100020000C943F000C943F000C943F000C943F0054
:100030000C943F000C943F000C943F000C943F0044
:100040000C943F000C943F000C943F000C943F0034
:100050000C943F0011241FBECFE5D8E0DEBFCDBF1A
:1000600010E0A0E6B0E0E2E3F2E702C005900D92F6
:10007000A839B107D9F70E94790C0C9417390C9460
:100080000000EF92FF920F931F937B018C0120E001
:1000900030E040E05FE40E94410388238CF0C80117
:1000A000B70120E030E040E05FE40E94B9010E9427
:1000B000A1039B01AC01205030404040504806C095
:1000C000C801B7010E94A1039B01AC01B901CA019B
:1000D0001F910F91FF90EF900895A0E0B0E0E3E74B
:1000E000F0E00C94E038DC012B01FA019C91923095
:1000F00008F439C1EB018881823008F433C19430AF
:1001000069F4843009F02FC111969C91119789816F
:10011000981709F428C1A0E6B0E025C1843009F49D
:1001200021C18230A9F4923009F01DC19A01AD01BC
:1001300088E0EA010990AE01E90109929E0181502F
:10014000C1F7E201898111969C918923818308C1BD
:10015000923009F407C112962D903C901397EB0151
:100160008A819B811496AD90BD90CD90DC901797BD
:10017000EC80FD800E811F819101281B390BB90194
:1001800037FF04C066277727621B730B6032710547
:100190000CF061C0121613066CF537014801062EEB
:1001A00004C096948794779467940A94D2F721E0D8
:1001B00030E040E050E004C0220F331F441F551FC1
:1001C0006A95D2F721503040404050402E213F21C7
:1001D00040235123211531054105510521F021E02E
:1001E00030E040E050E079018A01E628F72808294C
:1001F00019293CC0232BD1F1260E371E35014601AB
:10020000062E04C096948794779467940A94D2F744
:1002100021E030E040E050E004C0220F331F441FD3
:10022000551F6A95D2F721503040404050402A2156
:100230003B214C215D21211531054105510521F05E
:1002400021E030E040E050E059016A01A628B728DB
:10025000C828D9280BC0821593052CF01C01AA24AC
:10026000BB24650103C0EE24FF24870111969C91F5
:10027000D20111968C91981709F445C0992339F051
:10028000A80197012A193B094C095D0906C0A6017E
:1002900095012E193F09400B510B57FD08C01182E3
:1002A0003382228224833583468357831DC081E0B5
:1002B00081833382228288279927DC01821B930B5A
:1002C000A40BB50B84839583A683B7830DC0220F3F
:1002D000331F441F551F24833583468357838281F0
:1002E000938101979383828324813581468157814D
:1002F000DA01C9010197A109B1098F5F9F4FAF4F83
:10030000BF4328F30BC0918333822282EA0CFB1C8B
:100310000C1D1D1DE482F5820683178383E0808314
:10032000248135814681578157FF1AC0C901AA2708
:1003300097FDA095BA2F81709070A070B0705695FF
:10034000479537952795822B932BA42BB52B848328
:100350009583A683B7838281938101969383828359
:10036000DF0101C0D201CD01CDB7DEB7E2E10C94CF
:10037000FC38A0E2B0E0EFEBF1E00C94EC386983DC
:100380007A838B839C832D833E834F835887E9E058
:10039000EE2EF12CEC0EFD1ECE010196B7010E944F
:1003A000CA048E010F5E1F4FCE010596B8010E9450
:1003B000CA048A8991E089278A8BC701B801AE01F6
:1003C000475E5F4F0E946D000E94F503A096E6E035
:1003D0000C940839A0E2B0E0E0EFF1E00C94EC38C6
:1003E00069837A838B839C832D833E834F835887D5
:1003F000F9E0EF2EF12CEC0EFD1ECE010196B701B7
:100400000E94CA048E010F5E1F4FCE010596B801EF
:100410000E94CA04C701B801AE01475E5F4F0E9447
:100420006D000E94F503A096E6E00C940839A0E266
:10043000B0E0EDE1F2E00C94E03869837A838B83DD
:100440009C832D833E834F835887CE010196BE0146
:10045000675F7F4F0E94CA04CE010596BE016F5EA2
:100460007F4F0E94CA049985923088F08989823032
:10047000C8F0943019F4823051F404C0843029F467
:10048000923081F480E690E0C6C0923049F420E0DA
:100490009A858A89981321E02A87CE010996BBC0E4
:1004A000823049F420E09A858A89981321E02A8BCA
:1004B000CE014196B0C02D843E844F8458886D880B
:1004C0007E888F88988CEE24FF248701AA24BB2481
:1004D000650140E050E060E070E0E0E0F0E0C10184
:1004E00081709070892BE9F0E60CF71C081D191D2E
:1004F0009A01AB012A0D3B1D4C1D5D1D80E090E073
:10050000A0E0B0E0E614F7040805190520F481E046
:1005100090E0A0E0B0E0BA01A901480F591F6A1F9E
:100520007B1FAA0CBB1CCC1CDD1C97FE08C081E005
:1005300090E0A0E0B0E0A82AB92ACA2ADB2A3196C6
:10054000E032F10549F0660C771C881C991C569422
:10055000479437942794C3CFFA85EA892B893C893D
:100560008B859C85280F391F2E5F3F4F17C0CA010E
:1005700081709070892B61F016950795F794E79438
:1005800080E090E0A0E0B0E8E82AF92A0A2B1B2BD3
:1005900076956795579547952F5F3F4F77FDE7CF46
:1005A0000CC0440F551F661F771F17FD4160EE0CEE
:1005B000FF1C001F111F21503040403090E05907B0
:1005C00090E0690790E4790760F32B8F3C8FDB01A3
:1005D000CA018F779070A070B07080349105A1052A
:1005E000B10561F447FD0AC0E114F10401051105EC
:1005F00029F0405C5F4F6F4F7F4F40781A8EFE1797
:1006000011F081E08A8F4D8F5E8F6F8F78A383E02A
:10061000898FCE0149960E94F503A096E2E10C94E1
:10062000FC38A8E1B0E0E7E1F3E00C94EC38698332
:100630007A838B839C832D833E834F83588789E005
:10064000E82EF12CEC0EFD1ECE010196B7010E94A2
:10065000CA048E010F5E1F4FCE010596B8010E949D
:10066000CA048985823040F08989823028F0C70128
:10067000B8010E94420501C08FEF6896E6E00C9435
:100680000839A8E1B0E0E7E4F3E00C94EC386983C2
:100690007A838B839C832D833E834F83588789E0A5
:1006A000E82EF12CEC0EFD1ECE010196B7010E9442
:1006B000CA048E010F5E1F4FCE010596B8010E943D
:1006C000CA048985823040F08989823028F0C701C8
:1006D000B8010E94420501C08FEF6896E6E00C94D5
:1006E0000839A8E1B0E0E7E7F3E00C94EC3869835F
:1006F0007A838B839C832D833E834F83588789E045
:10070000E82EF12CEC0EFD1ECE010196B7010E94E1
:10071000CA048E010F5E1F4FCE010596B8010E94DC
:10072000CA048985823040F08989823028F0C70167
:10073000B8010E94420501C081E06896E6E00C9491
:100740000839ACE0B0E0E7EAF3E00C94F0386983F4
:100750007A838B839C83CE010196BE016B5F7F4FB2
:100760000E94CA048D81823061F1823050F1843060
:1007700021F48E81882351F12EC02F81388537FDD9
:1007800020C06E812F3131051CF06623F9F023C0A3
:100790008EE190E0821B930B29853A854B855C8521
:1007A00004C056954795379527958A95D2F76623C5
:1007B000B1F050954095309521953F4F4F4F5F4F89
:1007C0000EC020E030E040E050E009C02FEF3FEFE6
:1007D0004FEF5FE704C020E030E040E050E8B901AF
:1007E000CA012C96E2E00C940C39DF92EF92FF9252
:1007F0000F931F93FC01E480F58006811781D1805F
:100800008081823048F480E090E0A0E1B0E0E82A06
:10081000F92A0A2B1B2BA5C0843009F49FC0823013
:1008200021F4EE24FF24870105C0E114F104010541
:10083000110519F4E0E0F0E096C0628173819FEF4A
:10084000623879070CF05BC022E83FEF261B370BBC
:100850002A3131052CF020E030E040E050E02AC0A1
:10086000B801A701022E04C0769567955795479564
:100870000A94D2F781E090E0A0E0B0E004C0880FD5
:10088000991FAA1FBB1F2A95D2F70197A109B10989
:100890008E219F21A023B1230097A105B10521F04E
:1008A00081E090E0A0E0B0E09A01AB01282B392B69
:1008B0004A2B5B2BDA01C9018F779070A070B07062
:1008C00080349105A105B10539F427FF09C0205CEA
:1008D0003F4F4F4F5F4F04C0215C3F4F4F4F5F4F23
:1008E000E0E0F0E02030A0E03A07A0E04A07A0E412
:1008F0005A0710F0E1E0F0E079018A0127C0603882
:10090000710564F5FB01E158FF4FD801C7018F77EE
:100910009070A070B07080349105A105B10539F4D4
:10092000E7FE0DC080E490E0A0E0B0E004C08FE3FB
:1009300090E0A0E0B0E0E80EF91E0A1F1B1F17FFB1
:1009400005C016950795F794E794319687E01695BC
:100950000795F794E7948A95D1F705C0EE24FF2414
:100960008701EFEFF0E06E2F679566276795902F70
:100970009F77D794DD24D7948E2F8695492F462BC9
:10098000582F5D29B701CA011F910F91FF90EF9079
:10099000DF900895FC01DB01408151812281622FAB
:1009A0006F7770E0221F2227221F9381892F880FE3
:1009B000822B282F30E0991F9927991F11969C931D
:1009C000119721153105A9F54115510561057105ED
:1009D00011F482E037C082E89FEF13969C938E93C8
:1009E00012979A01AB0167E0220F331F441F551F76
:1009F0006A95D1F783E08C930DC0220F331F441FFB
:100A0000551F12968D919C911397019713969C9365
:100A10008E931297203080E0380780E0480780E40A
:100A2000580758F314962D933D934D935C93179765
:100A300008952F3F310579F4411551056105710580
:100A400019F484E08C93089564FF03C081E08C93D3
:100A500012C01C9210C02F57304013963C932E9317
:100A6000129783E08C9387E0440F551F661F771F12
:100A70008A95D1F7706414964D935D936D937C9332
:100A8000179708951F93DC01FB019C91923008F4A5
:100A900047C08081823008F443C0943051F41196ED
:100AA0001C91843099F58181682F70E0611B710978
:100AB0003FC0843021F0923031F48230B9F181812D
:100AC000882389F12DC011961C9111978230F1F085
:100AD00081811817D9F412962D913C911397828138
:100AE00093818217930794F028173907BCF0149666
:100AF0008D919D910D90BC91A02D248135814681D1
:100B00005781281739074A075B0718F4112341F06A
:100B10000AC082179307A407B50740F4112319F000
:100B200061E070E005C06FEF7FEF02C060E070E051
:100B3000CB011F910895DF93CF93CDB7DEB72897F0
:100B40000FB6F894DEBF0FBECDBF8A836B834C8394
:100B500081E089838A81843008F0F1C08B818830FC
:100B600008F0EDC08C81813009F06FC08A81282F98
:100B700030E038872F838F8198858130910549F146
:100B80002F813885223031052CF48F81988500978C
:100B900061F0D6C02F8138852230310571F18F8107
:100BA000988583309105E9F1CBC0AAE3B0E0EAE390
:100BB000F0E08081482F8B81282F30E081E090E0A9
:100BC000022E02C0880F991F0A94E2F7842B8C939F
:100BD000B7C0A7E3B0E0E7E3F0E08081482F8B8166
:100BE000282F30E081E090E0022E02C0880F991F8C
:100BF0000A94E2F7842B8C93A3C0A4E3B0E0E4E36F
:100C0000F0E08081482F8B81282F30E081E090E058
:100C1000022E02C0880F991F0A94E2F7842B8C934E
:100C20008FC0A1E3B0E0E1E3F0E08081482F8B8149
:100C3000282F30E081E090E0022E02C0880F991F3B
:100C40000A94E2F7842B8C937BC08C81882309F073
:100C500074C08A81282F30E03E832D838D819E8150
:100C60008130910559F12D813E81223031052CF4DE
:100C70008D819E81009769F063C02D813E81223075
:100C8000310589F18D819E818330910509F440C041
:100C900057C0AAE3B0E0EAE3F0E08081482F8B81FF
:100CA000282F30E081E090E0022E02C0880F991FCB
:100CB0000A94E2F7809584238C9342C0A7E3B0E0C6
:100CC000E7E3F0E08081482F8B81282F30E081E03E
:100CD00090E0022E02C0880F991F0A94E2F78095D7
:100CE00084238C932DC0A4E3B0E0E4E3F0E08081A2
:100CF000482F8B81282F30E081E090E0022E02C047
:100D0000880F991F0A94E2F7809584238C9318C06A
:100D1000A1E3B0E0E1E3F0E08081482F8B81282F50
:100D200030E081E090E0022E02C0880F991F0A9403
:100D3000E2F7809584238C9303C0198201C0198245
:100D4000898128960FB6F894DEBF0FBECDBFCF9134
:100D5000DF910895DF93CF93CDB7DEB728970FB615
:100D6000F894DEBF0FBECDBF8A836B834C8381E0D6
:100D700089838A81843008F0F1C08B81883008F043
:100D8000EDC08C81813009F06FC08A81282F30E05E
:100D900038872F838F8198858130910549F12F8184
:100DA0003885223031052CF48F819885009761F0C9
:100DB000D6C02F8138852230310571F18F81988519
:100DC00083309105E9F1CBC0ABE3B0E0EBE3F0E0B9
:100DD0008081482F8B81282F30E081E090E0022E27
:100DE00002C0880F991F0A94E2F7842B8C93B7C036
:100DF000A8E3B0E0E8E3F0E08081482F8B81282F62
:100E000030E081E090E0022E02C0880F991F0A9422
:100E1000E2F7842B8C93A3C0A5E3B0E0E5E3F0E018
:100E20008081482F8B81282F30E081E090E0022ED6
:100E300002C0880F991F0A94E2F7842B8C938FC00D
:100E4000A2E3B0E0E2E3F0E08081482F8B81282F1D
:100E500030E081E090E0022E02C0880F991F0A94D2
:100E6000E2F7842B8C937BC08C81882309F074C0BB
:100E70008A81282F30E03E832D838D819E818130B1
:100E8000910559F12D813E81223031052CF48D815F
:100E90009E81009769F063C02D813E81223031052B
:100EA00089F18D819E818330910509F440C057C03E
:100EB000ABE3B0E0EBE3F0E08081482F8B81282F9B
:100EC00030E081E090E0022E02C0880F991F0A9462
:100ED000E2F7809584238C9342C0A8E3B0E0E8E376
:100EE000F0E08081482F8B81282F30E081E090E076
:100EF000022E02C0880F991F0A94E2F7809584237E
:100F00008C932DC0A5E3B0E0E5E3F0E08081482FAD
:100F10008B81282F30E081E090E0022E02C0880F04
:100F2000991F0A94E2F7809584238C9318C0A2E35A
:100F3000B0E0E2E3F0E08081482F8B81282F30E0A1
:100F400081E090E0022E02C0880F991F0A94E2F718
:100F5000809584238C9303C0198201C019828981F2
:100F600028960FB6F894DEBF0FBECDBFCF91DF91AC
:100F70000895DF93CF93CDB7DEB727970FB6F894D8
:100F8000DEBF0FBECDBF8A836B835D834C8381E060
:100F900089838A81843008F075C08B81883008F09D
:100FA00071C08A81282F30E03F832E834E815F817C
:100FB0004130510559F18E819F818230910534F481
:100FC0002E813F812115310569F05DC04E815F8121
:100FD0004230510579F18E819F818330910509F46A
:100FE0003DC051C0E9E3F0E08081282F30E08B81E3
:100FF000882F90E0A90102C0559547958A95E2F7A0
:10100000CA018170EC81FD8180833DC0E6E3F0E0A0
:101010008081282F30E08B81882F90E0A90102C0C9
:10102000559547958A95E2F7CA018170EC81FD815B
:10103000808329C0E3E3F0E08081282F30E08B81BA
:10104000882F90E0A90102C0559547958A95E2F74F
:10105000CA018170EC81FD81808315C0E0E3F0E07E
:101060008081282F30E08B81882F90E0A90102C079
:10107000559547958A95E2F7CA018170EC81FD810B
:10108000808301C01982898127960FB6F894DEBF4C
:101090000FBECDBFCF91DF910895DF93CF9300D0E6
:1010A00000D00F92CDB7DEB78A836B8381E089834E
:1010B0008A81843008F06FC08A81282F30E03D8318
:1010C0002C838C819D818130910549F12C813D815A
:1010D000223031052CF48C819D81009761F05CC039
:1010E0002C813D812230310571F18C819D818330CD
:1010F0009105E9F151C0ABE3B0E0EBE3F0E08081B2
:10110000482F8B81282F30E081E090E0022E02C032
:10111000880F991F0A94E2F784278C933DC0A8E3B7
:10112000B0E0E8E3F0E08081482F8B81282F30E0A9
:1011300081E090E0022E02C0880F991F0A94E2F726
:1011400084278C9329C0A5E3B0E0E5E3F0E080813B
:10115000482F8B81282F30E081E090E0022E02C0E2
:10116000880F991F0A94E2F784278C9315C0A2E395
:10117000B0E0E2E3F0E08081482F8B81282F30E05F
:1011800081E090E0022E02C0880F991F0A94E2F7D6
:1011900084278C9301C0198289810F900F900F9042
:1011A0000F900F90CF91DF910895DF93CF9300D0F0
:1011B00000D00F92CDB7DEB78A836B8381E089833D
:1011C0008A818430A8F58A81282F30E03D832C83E2
:1011D0008C819D8181309105D1F02C813D8122301F
:1011E00031052CF48C819D81009761F01FC02C810A
:1011F0003D812230310581F08C819D8183309105C4
:1012000081F014C0EAE3F0E08B81808312C0E7E351
:10121000F0E08B8180830DC0E4E3F0E08B8180837C
:1012200008C0E1E3F0E08B81808303C0198201C034
:10123000198289810F900F900F900F900F90CF918E
:10124000DF910895DF93CF9300D000D00F92CDB7F8
:10125000DEB78A836B8381E089838A818430A8F535
:101260008A81282F30E03D832C838C819D818130C1
:101270009105D1F02C813D81223031052CF48C81F7
:101280009D81009761F01FC02C813D812230310586
:1012900081F08C819D818330910581F014C0EBE356
:1012A000F0E08B81808312C0E8E3F0E08B818083E3
:1012B0000DC0E5E3F0E08B81808308C0E2E3F0E05D
:1012C0008B81808303C0198201C0198289810F90AC
:1012D0000F900F900F900F90CF91DF910895DF93B3
:1012E000CF9300D000D000D0CDB7DEB78A837C8307
:1012F0006B8381E089838A818430E8F58A81282F95
:1013000030E03E832D838D819E8181309105E1F017
:101310002D813E81223031052CF48D819E810097F4
:1013200061F027C02D813E8122303105A1F08D81F1
:101330009E8183309105B1F01CC0E9E3F0E080812B
:10134000EB81FC81808318C0E6E3F0E08081EB81D3
:10135000FC81808311C0E3E3F0E08081EB81FC81BC
:1013600080830AC0E0E3F0E08081EB81FC81808330
:1013700003C0198201C01982898126960FB6F8949C
:10138000DEBF0FBECDBFCF91DF910895DF93CF9326
:1013900000D000D0CDB7DEB78A8381E089838A810F
:1013A000843008F041C08A81282F30E03C832B83B1
:1013B0008B819C8181309105E9F02B813C81223029
:1013C00031052CF48B819C81009761F02BC02B811F
:1013D0003C8122303105B1F08B819C8183309105B5
:1013E000C9F020C0ABE3B0E0EBE3F0E08081809592
:1013F0008C931BC0A8E3B0E0E8E3F0E08081809527
:101400008C9313C0A5E3B0E0E5E3F0E08081809524
:101410008C930BC0A2E3B0E0E2E3F0E08081809522
:101420008C9303C0198201C0198289810F900F909B
:101430000F900F90CF91DF910895DF93CF9300D05D
:101440000F92CDB7DEB769837A838B8389819A81C6
:10145000692F41E00E949B050F900F900F90CF9154
:10146000DF910895DF93CF9300D00F92CDB7DEB711
:1014700069837A838B838B81813039F489819A8166
:10148000692F41E00E94AA0609C08B81882331F4AC
:1014900089819A81692F40E00E94AA060F900F90DF
:1014A0000F90CF91DF910895DF93CF9300D00F92EB
:1014B000CDB7DEB769837A838B838B81813039F432
:1014C00089819A81692F40E00E94AA0609C08B8118
:1014D000882331F489819A81692F41E00E94AA060C
:1014E0000F900F900F90CF91DF910895DF93CF93DE
:1014F00000D00F92CDB7DEB769837A838B83898161
:101500009A81692F0E944D080F900F900F90CF91F4
:10151000DF910895DF93CF9300D00F92CDB7DEB760
:1015200069837A838B8389819A81692F40E00E9445
:101530009B058B81882331F489819A81692F41E051
:101540000E94AA060F900F900F90CF91DF910895FF
:10155000DF93CF93CDB7DEB728970FB6F894DEBFF1
:101560000FBECDBF69837A838B838B81813021F05D
:101570008B81882309F083C08981282F30E0388748
:101580002F834F8158854130510579F18F8198859E
:101590008230910534F42F8138852115310569F0A9
:1015A0006CC04F81588542305105B9F18F819885C3
:1015B0008330910509F449C060C0E9E3F0E080811F
:1015C000282F30E08A81882F90E0A90102C055952C
:1015D00047958A95E2F7CA0181709070009719F4D7
:1015E00051E05E83D4C01E82D2C0E6E3F0E0808189
:1015F000282F30E08A81882F90E0A90102C05595FC
:1016000047958A95E2F7CA0181709070009719F4A6
:1016100051E05E83BCC01E82BAC0E3E3F0E080818B
:10162000282F30E08A81882F90E0A90102C05595CB
:1016300047958A95E2F7CA0181709070009719F476
:1016400051E05E83A4C01E82A2C0E0E3F0E080818E
:10165000282F30E08A81882F90E0A90102C055959B
:1016600047958A95E2F7CA0181709070009719F446
:1016700051E05E838CC01E828AC01E8288C08B812E
:10168000823009F083C08981282F30E03D832C838C
:101690004C815D814130510579F18C819D81823091
:1016A000910534F42C813D812115310569F06CC020
:1016B0004C815D8142305105B9F18C819D8183302F
:1016C000910509F449C060C0E9E3F0E08081282F6A
:1016D00030E08A81882F90E0A90102C05595479596
:1016E0008A95E2F7CA0181709070882319F051E061
:1016F0005E834DC01E824BC0E6E3F0E08081282F60
:1017000030E08A81882F90E0A90102C05595479565
:101710008A95E2F7CA0181709070882319F051E030
:101720005E8335C01E8233C0E3E3F0E08081282F62
:1017300030E08A81882F90E0A90102C05595479535
:101740008A95E2F7CA0181709070882319F051E000
:101750005E831DC01E821BC0E0E3F0E08081282F65
:1017600030E08A81882F90E0A90102C05595479505
:101770008A95E2F7CA0181709070882319F051E0D0
:101780005E8305C01E8203C01E8201C01E828E8140
:1017900028960FB6F894DEBF0FBECDBFCF91DF9174
:1017A0000895DF93CF9300D000D00F92CDB7DEB76E
:1017B00069837A838B838981282F30E03D832C8352
:1017C0008C819D8181309105F1F02C813D81223009
:1017D00031052CF48C819D81009761F02EC02C8105
:1017E0003D8122303105C1F08C819D81833091058E
:1017F000E1F023C0EBE3F0E080819A81692F41E0C2
:101800000E94AA061AC0E8E3F0E080819A81692F5D
:1018100041E00E94AA0611C0E5E3F0E080819A81D0
:10182000692F41E00E94AA0608C0E2E3F0E080814F
:101830009A81692F41E00E94AA060F900F900F90A5
:101840000F900F90CF91DF910895DF93CF9300D049
:1018500000D00F92CDB7DEB769837A838B838981FD
:10186000282F30E03D832C838C819D818130910530
:10187000F1F02C813D81223031052CF48C819D8149
:10188000009761F02EC02C813D8122303105C1F0DE
:101890008C819D8183309105E1F023C0EBE3F0E082
:1018A00080819A81692F40E00E94AA061AC0E8E36D
:1018B000F0E080819A81692F40E00E94AA0611C061
:1018C000E5E3F0E080819A81692F40E00E94AA065A
:1018D00008C0E2E3F0E080819A81692F40E00E9435
:1018E000AA060F900F900F900F900F90CF91DF915D
:1018F00008950F931F93DF93CF93CDB7DEB7CE53E9
:10190000D3400FB6F894DEBF0FBECDBFCE018154D9
:101910009D4FC151DD4F99838883CF5ED24085E9C9
:1019200090E0CF50DD4F99838883C15FD24093E030
:10193000CD50DD4F9883C35FD240CF50DD4FE8815B
:10194000F981C15FD2400080CF50DD4F88819981FD
:10195000C15FD2400196CF50DD4F99838883C15F2C
:10196000D240C151DD4FE881F981CF5ED240008283
:10197000C151DD4F88819981CF5ED2400196C1511E
:10198000DD4F99838883CF5ED240CD50DD4F988163
:10199000C35FD2409150CD50DD4F9883C35FD2409A
:1019A000CD50DD4FE881C35FD240EE2331F6CE014A
:1019B0008E539D4FCC50DD4F99838883C45FD240B6
:1019C00082E990E0CA50DD4F99838883C65FD24098
:1019D00093E0C850DD4F9883C85FD240CA50DD4FB6
:1019E000E881F981C65FD2400080CA50DD4F88810E
:1019F0009981C65FD2400196CA50DD4F9983888392
:101A0000C65FD240CC50DD4FE881F981C45FD2403F
:101A10000082CC50DD4F88819981C45FD24001960D
:101A2000CC50DD4F99838883C45FD240C850DD4FCE
:101A30009881C85FD2409150C850DD4F9883C85FED
:101A4000D240C850DD4FE881C85FD240EE2331F666
:101A5000CE018B539D4FC750DD4F99838883C95F5B
:101A6000D2408FE890E0C550DD4F99838883CB5FEB
:101A7000D24093E0C350DD4F9883CD5FD240C55034
:101A8000DD4FE881F981CB5FD2400080C550DD4F4A
:101A900088819981CB5FD2400196C550DD4F9983F3
:101AA0008883CB5FD240C750DD4FE881F981C95FA1
:101AB000D2400082C750DD4F88819981C95FD240F2
:101AC0000196C750DD4F99838883C95FD240C350C8
:101AD000DD4F9881CD5FD2409150C350DD4F988348
:101AE000CD5FD240C350DD4FE881CD5FD240EE23C1
:101AF00031F6CE0188539D4FC250DD4F99838883C4
:101B0000CE5FD2408CE890E0C050DD4F998388834F
:101B1000C050D34093E0CE5FDC4F9883C250D34097
:101B2000C050DD4FE881F981C050D3400080C050E3
:101B3000DD4F88819981C050D3400196C050DD4F60
:101B400099838883C050D340C250DD4FE881F9812A
:101B5000CE5FD2400082C250DD4F88819981CE5F36
:101B6000D2400196C250DD4F99838883CE5FD24028
:101B7000CE5FDC4F9881C250D3409150CE5FDC4F96
:101B80009883C250D340CE5FDC4FE881C250D3402F
:101B9000EE2331F6CE0185539D4FCD5FDC4F998307
:101BA0008883C350D34089E890E0CB5FDC4F9983B2
:101BB0008883C550D34093E0C95FDC4F9883C750FA
:101BC000D340CB5FDC4FE881F981C550D340008022
:101BD000CB5FDC4F88819981C550D3400196CB5FA4
:101BE000DC4F99838883C550D340CD5FDC4FE881BB
:101BF000F981C350D3400082CD5FDC4F8881998149
:101C0000C350D3400196CD5FDC4F99838883C35086
:101C1000D340C95FDC4F9881C750D3409150C95F12
:101C2000DC4F9883C750D340C95FDC4FE881C75071
:101C3000D340EE2331F6CE0182539D4FC85FDC4F77
:101C400099838883C850D34086E890E0C65FDC4F14
:101C500099838883CA50D34093E0C45FDC4F988354
:101C6000CC50D340C65FDC4FE881F981CA50D340E5
:101C70000080C65FDC4F88819981CA50D3400196AD
:101C8000C65FDC4F99838883CA50D340C85FDC4F5E
:101C9000E881F981C850D3400082C85FDC4F888159
:101CA0009981C850D3400196C85FDC4F99838883DF
:101CB000C850D340C45FDC4F9881CC50D340915082
:101CC000C45FDC4F9883CC50D340C45FDC4FE881C5
:101CD000CC50D340EE2331F6CE018F529D4FC35FDF
:101CE000DC4F99838883CD50D34083E890E0C15F77
:101CF000DC4F99838883CF50D34093E0CF5EDC4F95
:101D00009883C151D340C15FDC4FE881F981CF5046
:101D1000D3400080C15FDC4F88819981CF50D34090
:101D20000196C15FDC4F99838883CF50D340C35F56
:101D3000DC4FE881F981CD50D3400082C35FDC4F96
:101D400088819981CD50D3400196C35FDC4F998340
:101D50008883CD50D340CF5EDC4F9881C151D340B2
:101D60009150CF5EDC4F9883C151D340CF5EDC4FA2
:101D7000E881C151D340EE2331F6CE018C529D4F04
:101D8000CE5EDC4F99838883C251D34080E890E0D7
:101D9000CC5EDC4F99838883C451D34093E0CA5E04
:101DA000DC4F9883C651D340CC5EDC4FE881F9818B
:101DB000C451D3400080CC5EDC4F88819981C451EE
:101DC000D3400196CC5EDC4F99838883C451D340C5
:101DD000CE5EDC4FE881F981C251D3400082CE5EF5
:101DE000DC4F88819981C251D3400196CE5EDC4F91
:101DF00099838883C251D340CA5EDC4F9881C65113
:101E0000D3409150CA5EDC4F9883C651D340CA5E1E
:101E1000DC4FE881C651D340EE2331F6FE01E15498
:101E2000FD4F6081718182810E948A0AFE01EE531A
:101E3000FD4F6081718182810E948A0AFE01EB530D
:101E4000FD4F6081718182810E948A0AFE01E85300
:101E5000FD4F6081718182810E948A0AFE01E553F3
:101E6000FD4F6081718182810E948A0AFE01E253E6
:101E7000FD4F6081718182810E948A0AFE01EF52CA
:101E8000FD4F6081718182810E948A0AFE01EC52BD
:101E9000FD4F6081718182810E948A0AFE01E154B6
:101EA000FD4F6081718182810E94D10BFE01EE5352
:101EB000FD4F6081718182810E94D10BFE01EB5345
:101EC000FD4F6081718182810E94D10BFE01E85338
:101ED000FD4F6081718182810E94D10BFE01E5532B
:101EE000FD4F6081718182810E94D10BFE01E2531E
:101EF000FD4F6081718182810E94D10BFE01EF5202
:101F0000FD4F6081718182810E94D10BFE01EC52F4
:101F1000FD4F6081718182810E94D10BCE01895277
:101F20009D4FC95EDC4F99838883C751D3408DE7AD
:101F300090E0C75EDC4F99838883C951D34093E01A
:101F4000C55EDC4F9883CB51D340C75EDC4FE88140
:101F5000F981C951D3400080C75EDC4F88819981E7
:101F6000C951D3400196C75EDC4F99838883C9511C
:101F7000D340C95EDC4FE881F981C751D34000826C
:101F8000C95EDC4F88819981C751D3400196C95EF3
:101F9000DC4F99838883C751D340C55EDC4F98815D
:101FA000CB51D3409150C55EDC4F9883CB51D34089
:101FB000C55EDC4FE881CB51D340EE2331F6CE0134
:101FC00086529D4FC45EDC4F99838883CC51D340A9
:101FD0008AE790E0C25EDC4F99838883CE51D3407C
:101FE00093E0C05EDC4F9883C052D340C25EDC4FAA
:101FF000E881F981CE51D3400080C25EDC4F8881F8
:102000009981CE51D3400196C25EDC4F998388837B
:10201000CE51D340C45EDC4FE881F981CC51D3402E
:102020000082C45EDC4F88819981CC51D3400196F7
:10203000C45EDC4F99838883CC51D340C05EDC4FB3
:102040009881C052D3409150C05EDC4F9883C052FB
:10205000D340C05EDC4FE881C052D340EE2331F65E
:10206000CE0183529D4FCF5DDC4F99838883C1524F
:10207000D34087E790E0CD5DDC4F99838883C352DE
:10208000D34093E0CB5DDC4F9883C552D340CD5D08
:10209000DC4FE881F981C352D3400080CD5DDC4F35
:1020A00088819981C352D3400196CD5DDC4F9983DD
:1020B0008883C352D340CF5DDC4FE881F981C152A0
:1020C000D3400082CF5DDC4F88819981C152D340DB
:1020D0000196CF5DDC4F99838883C152D340CB5D9D
:1020E000DC4F9881C552D3409150CB5DDC4F988333
:1020F000C552D340CB5DDC4FE881C552D340EE23BF
:1021000031F6CE0180529D4FCA5DDC4F99838883A2
:10211000C652D34084E790E0C85DDC4F9983888342
:10212000C852D34093E0C65DDC4F9883CA52D34077
:10213000C85DDC4FE881F981C852D3400080C85D9A
:10214000DC4F88819981C852D3400196C85DDC4F2D
:1021500099838883C852D340CA5DDC4FE881F981F6
:10216000C652D3400082CA5DDC4F88819981C65235
:10217000D3400196CA5DDC4F99838883C652D34011
:10218000C65DDC4F9881CA52D3409150C65DDC4F8A
:102190009883CA52D340C65DDC4FE881CA52D3400F
:1021A000EE2331F6CE018D519D4FC55DDC4F9983F5
:1021B0008883CB52D34081E790E0C35DDC4F9983A5
:1021C0008883CD52D34093E0C15DDC4F9883CF52DA
:1021D000D340C35DDC4FE881F981CD52D34000800C
:1021E000C35DDC4F88819981CD52D3400196C35D98
:1021F000DC4F99838883CD52D340C55DDC4FE881A5
:10220000F981CB52D3400082C55DDC4F8881998132
:10221000CB52D3400196C55DDC4F99838883CB5266
:10222000D340C15DDC4F9881CF52D3409150C15D06
:10223000DC4F9883CF52D340C15DDC4FE881CF5251
:10224000D340EE2331F6CE018A519D4FC05DDC4F65
:1022500099838883C053D3408EE690E0CE5CDC4FF8
:1022600099838883C253D34093E0CC5CDC4F98833E
:10227000C453D340CE5CDC4FE881F981C253D340D4
:102280000080CE5CDC4F88819981C253D340019697
:10229000CE5CDC4F99838883C253D340C05DDC4F52
:1022A000E881F981C053D3400082C05DDC4F888152
:1022B0009981C053D3400196C05DDC4F99838883D8
:1022C000C053D340CC5CDC4F9881C453D340915071
:1022D000CC5CDC4F9883C453D340CC5CDC4FE881AA
:1022E000C453D340EE2331F6CE0187519D4FCB5CD2
:1022F000DC4F99838883C553D3408BE690E0C95C5B
:10230000DC4F99838883C753D34093E0C75CDC4F8D
:102310009883C953D340C95CDC4FE881F981C75326
:10232000D3400080C95CDC4F88819981C753D3407A
:102330000196C95CDC4F99838883C753D340CB5C3B
:10234000DC4FE881F981C553D3400082CB5CDC4F80
:1023500088819981C553D3400196CB5CDC4F99832A
:102360008883C553D340C75CDC4F9881C953D340A1
:102370009150C75CDC4F9883C953D340C75CDC4F96
:10238000E881C953D340EE2331F6CE0184519D4FED
:10239000C65CDC4F99838883CA53D34088E690E0BB
:1023A000C45CDC4F99838883CC53D34093E0C25CF8
:1023B000DC4F9883CE53D340C45CDC4FE881F98175
:1023C000CC53D3400080C45CDC4F88819981CC53CE
:1023D000D3400196C45CDC4F99838883CC53D340AF
:1023E000C65CDC4FE881F981CA53D3400082C65CE9
:1023F000DC4F88819981CA53D3400196C65CDC4F7B
:1024000099838883CA53D340C25CDC4F9881CE53F2
:10241000D3409150C25CDC4F9883CE53D340C25C12
:10242000DC4FE881CE53D340EE2331F6FE01E95272
:10243000FD4F6081718182810E941D0AFE01E6527A
:10244000FD4F6081718182810E941D0AFE01E3526D
:10245000FD4F6081718182810E941D0AFE01E05260
:10246000FD4F6081718182810E941D0AFE01ED5144
:10247000FD4F6081718182810E941D0AFE01EA5137
:10248000FD4F6081718182810E941D0AFE01E7512A
:10249000FD4F6081718182810E941D0AFE01E4511D
:1024A000FD4F6081718182810E941D0AFE01E1540D
:1024B000FD4F6081718182810E94A80A813009F0FC
:1024C00013C1FE01E354FD4F11821082FFC0FE01D3
:1024D000E952FD4F6081718182810E94760AFE017E
:1024E000E652FD4F6081718182810E94760AFE0171
:1024F000E352FD4F6081718182810E94760AFE0164
:10250000E052FD4F6081718182810E94760AFE0156
:10251000ED51FD4F6081718182810E94760AFE013A
:10252000EA51FD4F6081718182810E94760AFE012D
:10253000E751FD4F6081718182810E94760AFE0120
:10254000E451FD4F6081718182810E94760AFE0113
:10255000E555FD4F80E090E0AAE7B4E480839183E5
:10256000A283B3838E0109551D4FFE01E555FD4F32
:10257000608171818281938120E030E04AEF54E4F0
:102580000E941702DC01CB01F80180839183A283B2
:10259000B383FE01E955FD4F608171818281938192
:1025A00020E030E040E85FE30E947103882344F4B8
:1025B000FE01EB55FD4F81E090E09183808364C084
:1025C000FE01E955FD4F608171818281938120E098
:1025D0003FEF4FE757E40E94110318160CF043C079
:1025E000FE01E555FD4F608171818281938120E07C
:1025F00030E040E251E40E941702DC01CB018E0181
:102600000B551D4FBC01CD010E944100DC01CB01E7
:10261000F801918380831FC0FE01ED55FD4F88ECCA
:1026200090E091838083FE01ED55FD4F8081918183
:102630000197F1F7FE01ED55FD4F91838083DE0197
:10264000AB55BD4FFE01EB55FD4F80819181019748
:1026500011969C938E93FE01EB55FD4F80819181E5
:102660000097D1F627C08E010B551D4FFE01E9558D
:10267000FD4F60817181828193810E944100DC0164
:10268000CB01F80191838083DE01AF55BD4FFE0180
:10269000EB55FD4F808191818D939C93FE01EF5509
:1026A000FD4F808191810197F1F7FE01EF55FD4FBC
:1026B00091838083DE01A354BD4FFE01E354FD4F9F
:1026C00080819181019611969C938E93FE01E35433
:1026D000FD4F80819181823091050CF4F8CE80E02D
:1026E00060E00E942209E2CEFE01EE53FD4F6081C0
:1026F000718182810E94A80A813009F038C6FE01EA
:10270000E554FD4F1182108224C6FE01E451FD4FB5
:102710006081718182810E94320AFE01E952FD4F7F
:102720006081718182810E94540AFE01E356FD4F4F
:1027300080E090E0AAE7B3E480839183A283B3832F
:102740008E0107561D4FFE01E356FD4F60817181DA
:102750008281938120E030E04AEF54E40E94170226
:10276000DC01CB01F80180839183A283B383FE0156
:10277000E756FD4F608171818281938120E030E0D6
:1027800040E85FE30E947103882344F4FE01E956A8
:10279000FD4F81E090E09183808364C0FE01E756A5
:1027A000FD4F608171818281938120E03FEF4FE78F
:1027B00057E40E94110318160CF043C0FE01E356C3
:1027C000FD4F608171818281938120E030E040E2A1
:1027D00051E40E941702DC01CB018E0109561D4F06
:1027E000BC01CD010E944100DC01CB01F8019183C5
:1027F00080831FC0FE01EB56FD4F88EC90E0918373
:102800008083FE01EB56FD4F808191810197F1F7A6
:10281000FE01EB56FD4F91838083DE01A956BD4F2B
:10282000FE01E956FD4F80819181019711969C939D
:102830008E93FE01E956FD4F808191810097D1F67C
:1028400027C08E0109561D4FFE01E756FD4F6081DE
:102850007181828193810E944100DC01CB01F801EA
:1028600091838083DE01AD56BD4FFE01E956FD4FD9
:10287000808191818D939C93FE01ED56FD4F808167
:1028800091810197F1F7FE01ED56FD4F9183808311
:10289000FE01E751FD4F6081718182810E94320A01
:1028A000FE01E451FD4F6081718182810E94540AD2
:1028B000FE01E157FD4F80E090E0AAE7B3E480839A
:1028C0009183A283B3838E0105571D4FFE01E1570B
:1028D000FD4F608171818281938120E030E04AEF79
:1028E00054E40E941702DC01CB01F801808391833C
:1028F000A283B383FE01E557FD4F60817181828120
:10290000938120E030E040E85FE30E947103882378
:1029100044F4FE01E757FD4F81E090E0918380830E
:1029200064C0FE01E557FD4F608171818281938112
:1029300020E03FEF4FE757E40E94110318160CF018
:1029400043C0FE01E157FD4F608171818281938117
:1029500020E030E040E251E40E941702DC01CB01AC
:102960008E0107571D4FBC01CD010E944100DC01C3
:10297000CB01F801918380831FC0FE01E957FD4F11
:1029800088EC90E091838083FE01E957FD4F8081C0
:1029900091810197F1F7FE01E957FD4F9183808303
:1029A000DE01A757BD4FFE01E757FD4F80819181A2
:1029B000019711969C938E93FE01E757FD4F8081FE
:1029C00091810097D1F627C08E0107571D4FFE0158
:1029D000E557FD4F60817181828193810E944100A2
:1029E000DC01CB01F80191838083DE01AB57BD4F41
:1029F000FE01E757FD4F808191818D939C93FE01ED
:102A0000EB57FD4F808191810197F1F7FE01EB5764
:102A1000FD4F91838083FE01EA51FD4F60817181FA
:102A200082810E94320AFE01E751FD4F608171816F
:102A300082810E94540AFE01EF57FD4F80E090E032
:102A4000AAE7B3E480839183A283B3838E01035802
:102A50001D4FFE01EF57FD4F60817181828193818F
:102A600020E030E04AEF54E40E941702DC01CB0181
:102A7000F80180839183A283B383FE01E358FD4F65
:102A8000608171818281938120E030E040E85FE3E2
:102A90000E947103882344F4FE01E558FD4F81E054
:102AA00090E09183808364C0FE01E358FD4F608114
:102AB00071818281938120E03FEF4FE757E40E94CC
:102AC000110318160CF043C0FE01EF57FD4F608153
:102AD00071818281938120E030E040E251E40E94E4
:102AE0001702DC01CB018E0105581D4FBC01CD0141
:102AF0000E944100DC01CB01F801918380831FC05B
:102B0000FE01E758FD4F88EC90E091838083FE0141
:102B1000E758FD4F808191810197F1F7FE01E75859
:102B2000FD4F91838083DE01A558BD4FFE01E5581E
:102B3000FD4F80819181019711969C938E93FE01A8
:102B4000E558FD4F808191810097D1F627C08E0115
:102B500005581D4FFE01E358FD4F60817181828150
:102B600093810E944100DC01CB01F80191838083B5
:102B7000DE01A958BD4FFE01E558FD4F80819181CE
:102B80008D939C93FE01E958FD4F808191810197BF
:102B9000F1F7FE01E958FD4F91838083FE01ED516D
:102BA000FD4F6081718182810E94320AFE01EA51EB
:102BB000FD4F6081718182810E94540AFE01ED58AF
:102BC000FD4F80E090E0AAE7B3E480839183A28385
:102BD000B3838E0101591D4FFE01ED58FD4F6081F9
:102BE00071818281938120E030E04AEF54E40E94B9
:102BF0001702DC01CB01F80180839183A283B383A8
:102C0000FE01E159FD4F608171818281938120E055
:102C100030E040E85FE30E947103882344F4FE0142
:102C2000E359FD4F81E090E09183808364C0FE0111
:102C3000E159FD4F608171818281938120E03FEFF6
:102C40004FE757E40E94110318160CF043C0FE0131
:102C5000ED58FD4F608171818281938120E030E0E9
:102C600040E251E40E941702DC01CB018E010359BE
:102C70001D4FBC01CD010E944100DC01CB01F801D8
:102C8000918380831FC0FE01E559FD4F88EC90E0E1
:102C900091838083FE01E559FD4F808191810197E9
:102CA000F1F7FE01E559FD4F91838083DE01A359C1
:102CB000BD4FFE01E359FD4F80819181019711962F
:102CC0009C938E93FE01E359FD4F80819181009783
:102CD000D1F627C08E0103591D4FFE01E159FD4F6A
:102CE00060817181828193810E944100DC01CB016E
:102CF000F80191838083DE01A759BD4FFE01E3599E
:102D0000FD4F808191818D939C93FE01E759FD4F8A
:102D1000808191810197F1F7FE01E759FD4F918381
:102D20008083FE01E052FD4F6081718182810E94AB
:102D3000320AFE01ED51FD4F6081718182810E9456
:102D4000540AFE01EB59FD4F80E090E0AAE7B3E49E
:102D500080839183A283B3838E010F591D4FFE019F
:102D6000EB59FD4F608171818281938120E030E0D9
:102D70004AEF54E40E941702DC01CB01F801808382
:102D80009183A283B383FE01EF59FD4F608171816E
:102D90008281938120E030E040E85FE30E9471038C
:102DA000882344F4FE01E15AFD4F81E090E09183D5
:102DB000808364C0FE01EF59FD4F60817181828183
:102DC000938120E03FEF4FE757E40E94110318166C
:102DD0000CF043C0FE01EB59FD4F6081718182818F
:102DE000938120E030E040E251E40E941702DC01D0
:102DF000CB018E01015A1D4FBC01CD010E94410043
:102E0000DC01CB01F801918380831FC0FE01E35AEE
:102E1000FD4F88EC90E091838083FE01E35AFD4FE3
:102E2000808191810197F1F7FE01E35AFD4F918373
:102E30008083DE01A15ABD4FFE01E15AFD4F808122
:102E40009181019711969C938E93FE01E15AFD4F5B
:102E5000808191810097D1F627C08E01015A1D4FC4
:102E6000FE01EF59FD4F60817181828193810E9443
:102E70004100DC01CB01F80191838083DE01A55A7A
:102E8000BD4FFE01E15AFD4F808191818D939C934E
:102E9000FE01E55AFD4F808191810197F1F7FE0116
:102EA000E55AFD4F91838083FE01E352FD4F60811F
:102EB000718182810E94320AFE01E052FD4F6081E1
:102EC000718182810E94540AFE01E95AFD4F80E01F
:102ED00090E0AAE7B3E480839183A283B3838E0159
:102EE0000D5A1D4FFE01E95AFD4F608171818281AB
:102EF000938120E030E04AEF54E40E941702DC01A5
:102F0000CB01F80180839183A283B383FE01ED5A44
:102F1000FD4F608171818281938120E030E040E843
:102F20005FE30E947103882344F4FE01EF5AFD4FD2
:102F300081E090E09183808364C0FE01ED5AFD4FF3
:102F4000608171818281938120E03FEF4FE757E4F8
:102F50000E94110318160CF043C0FE01E95AFD4F00
:102F6000608171818281938120E030E040E251E410
:102F70000E941702DC01CB018E010F5A1D4FBC01CC
:102F8000CD010E944100DC01CB01F80191838083D7
:102F90001FC0FE01E15BFD4F88EC90E091838083D0
:102FA000FE01E15BFD4F808191810197F1F7FE0108
:102FB000E15BFD4F91838083DE01AF5ABD4FFE017F
:102FC000EF5AFD4F80819181019711969C938E93CA
:102FD000FE01EF5AFD4F808191810097D1F627C005
:102FE0008E010F5A1D4FFE01ED5AFD4F6081718118
:102FF000828193810E944100DC01CB01F801918321
:103000008083DE01A35BBD4FFE01EF5AFD4F80813F
:1030100091818D939C93FE01E35BFD4F80819181B3
:103020000197F1F7FE01E35BFD4F91838083FE0181
:10303000E652FD4F6081718182810E94320AFE0159
:10304000E352FD4F6081718182810E94540AFE012A
:10305000E75BFD4F80E090E0AAE7B3E480839183D3
:10306000A283B3838E010B5B1D4FFE01E75BFD4F17
:10307000608171818281938120E030E04AEF54E4E5
:103080000E941702DC01CB01F80180839183A283A7
:10309000B383FE01EB5BFD4F60817181828193817F
:1030A00020E030E040E85FE30E947103882344F4AD
:1030B000FE01ED5BFD4F81E090E09183808364C071
:1030C000FE01EB5BFD4F608171818281938120E085
:1030D0003FEF4FE757E40E94110318160CF043C06E
:1030E000FE01E75BFD4F608171818281938120E069
:1030F00030E040E251E40E941702DC01CB018E0176
:103100000D5B1D4FBC01CD010E944100DC01CB01D4
:10311000F801918380831FC0FE01EF5BFD4F88ECB7
:1031200090E091838083FE01EF5BFD4F8081918170
:103130000197F1F7FE01EF5BFD4F91838083DE0184
:10314000AD5BBD4FFE01ED5BFD4F8081918101972D
:1031500011969C938E93FE01ED5BFD4F80819181D2
:103160000097D1F627C08E010D5B1D4FFE01EB5B72
:10317000FD4F60817181828193810E944100DC0159
:10318000CB01F80191838083DE01A15CBD4FFE017C
:10319000ED5BFD4F808191818D939C93FE01E15CFD
:1031A000FD4F808191810197F1F7FE01E15CFD4FB8
:1031B00091838083FE01E952FD4F6081718182819C
:1031C0000E94320AFE01E652FD4F608171818281C8
:1031D0000E94540AFE01E55CFD4F80E090E0AAE702
:1031E000B3E480839183A283B3838E01095C1D4F76
:1031F000FE01E55CFD4F608171818281938120E059
:1032000030E04AEF54E40E941702DC01CB01F801E0
:1032100080839183A283B383FE01E95CFD4F6081CB
:1032200071818281938120E030E040E85FE30E9479
:103230007103882344F4FE01EB5CFD4F81E090E0D4
:103240009183808364C0FE01E95CFD4F60817181E0
:103250008281938120E03FEF4FE757E40E94110302
:1032600018160CF043C0FE01E55CFD4F60817181D2
:103270008281938120E030E040E251E40E94170215
:10328000DC01CB018E010B5C1D4FBC01CD010E9406
:103290004100DC01CB01F801918380831FC0FE0156
:1032A000ED5CFD4F88EC90E091838083FE01ED5C46
:1032B000FD4F808191810197F1F7FE01ED5CFD4F9B
:1032C00091838083DE01AB5CBD4FFE01EB5CFD4F63
:1032D00080819181019711969C938E93FE01EB5C06
:1032E000FD4F808191810097D1F627C08E010B5C44
:1032F0001D4FFE01E95CFD4F6081718182819381E8
:103300000E944100DC01CB01F80191838083DE0142
:10331000AF5CBD4FFE01EB5CFD4F808191818D93D1
:103320009C93FE01EF5CFD4F808191810197F1F745
:10333000FE01EF5CFD4F91838083DE01A554BD4FFC
:10334000FE01E554FD4F80819181019611969C9379
:103350008E93FE01E554FD4F80819181823091056D
:103360000CF4D3C980E060E00E9422099FC8FE01EE
:10337000EB53FD4F6081718182810E94A80A8130E8
:1033800009F039C6FE01E754FD4F1182108224C6B0
:10339000FE01E952FD4F6081718182810E94320AF3
:1033A000FE01E451FD4F6081718182810E94540AC7
:1033B000FE01E35DFD4F80E090E0AAE7B3E4808387
:1033C0009183A283B3838E01075D1D4FFE01E35DF0
:1033D000FD4F608171818281938120E030E04AEF6E
:1033E00054E40E941702DC01CB01F8018083918331
:1033F000A283B383FE01E75DFD4F6081718182810D
:10340000938120E030E040E85FE30E94710388236D
:1034100044F4FE01E95DFD4F81E090E091838083FB
:1034200064C0FE01E75DFD4F6081718182819381FF
:1034300020E03FEF4FE757E40E94110318160CF00D
:1034400043C0FE01E35DFD4F608171818281938104
:1034500020E030E040E251E40E941702DC01CB01A1
:103460008E01095D1D4FBC01CD010E944100DC01B0
:10347000CB01F801918380831FC0FE01EB5DFD4FFE
:1034800088EC90E091838083FE01EB5DFD4F8081AD
:1034900091810197F1F7FE01EB5DFD4F91838083F0
:1034A000DE01A95DBD4FFE01E95DFD4F8081918187
:1034B000019711969C938E93FE01E95DFD4F8081EB
:1034C00091810097D1F627C08E01095D1D4FFE0145
:1034D000E75DFD4F60817181828193810E9441008F
:1034E000DC01CB01F80191838083DE01AD5DBD4F2E
:1034F000FE01E95DFD4F808191818D939C93FE01DA
:10350000ED5DFD4F808191810197F1F7FE01ED5D49
:10351000FD4F91838083FE01E652FD4F60817181F2
:1035200082810E94320AFE01E952FD4F6081718161
:1035300082810E94540AFE01E15EFD4F80E090E02E
:10354000AAE7B3E480839183A283B3838E01055EEF
:103550001D4FFE01E15EFD4F60817181828193818B
:1035600020E030E04AEF54E40E941702DC01CB0176
:10357000F80180839183A283B383FE01E55EFD4F52
:10358000608171818281938120E030E040E85FE3D7
:103590000E947103882344F4FE01E75EFD4F81E041
:1035A00090E09183808364C0FE01E55EFD4F608101
:1035B00071818281938120E03FEF4FE757E40E94C1
:1035C000110318160CF043C0FE01E15EFD4F60814F
:1035D00071818281938120E030E040E251E40E94D9
:1035E0001702DC01CB018E01075E1D4FBC01CD012E
:1035F0000E944100DC01CB01F801918380831FC050
:10360000FE01E95EFD4F88EC90E091838083FE012E
:10361000E95EFD4F808191810197F1F7FE01E95E3E
:10362000FD4F91838083DE01A75EBD4FFE01E75E03
:10363000FD4F80819181019711969C938E93FE019D
:10364000E75EFD4F808191810097D1F627C08E0102
:10365000075E1D4FFE01E55EFD4F60817181828135
:1036600093810E944100DC01CB01F80191838083AA
:10367000DE01AB5EBD4FFE01E75EFD4F80819181B3
:103680008D939C93FE01EB5EFD4F808191810197AC
:10369000F1F7FE01EB5EFD4F91838083FE01E35263
:1036A000FD4F6081718182810E94320AFE01E652E3
:1036B000FD4F6081718182810E94540AFE01EF5E9C
:1036C000FD4F80E090E0AAE7B3E480839183A2837A
:1036D000B3838E01035F1D4FFE01EF5EFD4F6081DE
:1036E00071818281938120E030E04AEF54E40E94AE
:1036F0001702DC01CB01F80180839183A283B3839D
:10370000FE01E35FFD4F608171818281938120E042
:1037100030E040E85FE30E947103882344F4FE0137
:10372000E55FFD4F81E090E09183808364C0FE01FE
:10373000E35FFD4F608171818281938120E03FEFE3
:103740004FE757E40E94110318160CF043C0FE0126
:10375000EF5EFD4F608171818281938120E030E0D6
:1037600040E251E40E941702DC01CB018E01055FAB
:103770001D4FBC01CD010E944100DC01CB01F801CD
:10378000918380831FC0FE01E75FFD4F88EC90E0CE
:1037900091838083FE01E75FFD4F808191810197D6
:1037A000F1F7FE01E75FFD4F91838083DE01A55FA6
:1037B000BD4FFE01E55FFD4F80819181019711961C
:1037C0009C938E93FE01E55FFD4F80819181009770
:1037D000D1F627C08E01055F1D4FFE01E35FFD4F4F
:1037E00060817181828193810E944100DC01CB0163
:1037F000F80191838083DE01A95FBD4FFE01E55F83
:10380000FD4F808191818D939C93FE01E95FFD4F77
:10381000808191810197F1F7FE01E95FFD4F91836E
:103820008083FE01E052FD4F6081718182810E94A0
:10383000320AFE01E352FD4F6081718182810E9454
:10384000540AFE01ED5FFD4F80E090E0AAE7B3E48B
:1038500080839183A283B3838E0101501E4FFE01AA
:10386000ED5FFD4F608171818281938120E030E0C6
:103870004AEF54E40E941702DC01CB01F801808377
:103880009183A283B383FE01E150FE4F6081718179
:103890008281938120E030E040E85FE30E94710381
:1038A000882344F4FE01E350FE4F81E090E09183D1
:1038B000808364C0FE01E150FE4F6081718182818E
:1038C000938120E03FEF4FE757E40E941103181661
:1038D0000CF043C0FE01ED5FFD4F6081718182817C
:1038E000938120E030E040E251E40E941702DC01C5
:1038F000CB018E0103501E4FBC01CD010E9441003F
:10390000DC01CB01F801918380831FC0FE01E550EB
:10391000FE4F88EC90E091838083FE01E550FE4FDE
:10392000808191810197F1F7FE01E550FE4F91836F
:103930008083DE01A350BE4FFE01E350FE4F808125
:103940009181019711969C938E93FE01E350FE4F57
:10395000808191810097D1F627C08E0103501E4FC0
:10396000FE01E150FE4F60817181828193810E944E
:103970004100DC01CB01F80191838083DE01A75077
:10398000BE4FFE01E350FE4F808191818D939C9349
:10399000FE01E750FE4F808191810197F1F7FE0112
:1039A000E750FE4F91838083FE01ED51FD4F608112
:1039B000718182810E94320AFE01E052FD4F6081D6
:1039C000718182810E94540AFE01EB50FE4F80E01B
:1039D00090E0AAE7B3E480839183A283B3838E014E
:1039E0000F501E4FFE01EB50FE4F608171818281AE
:1039F000938120E030E04AEF54E40E941702DC019A
:103A0000CB01F80180839183A283B383FE01EF5041
:103A1000FE4F608171818281938120E030E040E837
:103A20005FE30E947103882344F4FE01E151FE4FDD
:103A300081E090E09183808364C0FE01EF50FE4FEF
:103A4000608171818281938120E03FEF4FE757E4ED
:103A50000E94110318160CF043C0FE01EB50FE4FFC
:103A6000608171818281938120E030E040E251E405
:103A70000E941702DC01CB018E0101511E4FBC01D7
:103A8000CD010E944100DC01CB01F80191838083CC
:103A90001FC0FE01E351FE4F88EC90E091838083CC
:103AA000FE01E351FE4F808191810197F1F7FE0104
:103AB000E351FE4F91838083DE01A151BE4FFE0191
:103AC000E151FE4F80819181019711969C938E93D5
:103AD000FE01E151FE4F808191810097D1F627C010
:103AE0008E0101511E4FFE01EF50FE4F608171812A
:103AF000828193810E944100DC01CB01F801918316
:103B00008083DE01A551BE4FFE01E151FE4F808151
:103B100091818D939C93FE01E551FE4F80819181AF
:103B20000197F1F7FE01E551FE4F91838083FE017D
:103B3000EA51FD4F6081718182810E94320AFE014B
:103B4000ED51FD4F6081718182810E94540AFE0116
:103B5000E951FE4F80E090E0AAE7B3E480839183CF
:103B6000A283B3838E010D511E4FFE01E951FE4F1A
:103B7000608171818281938120E030E04AEF54E4DA
:103B80000E941702DC01CB01F80180839183A2839C
:103B9000B383FE01ED51FE4F60817181828193817B
:103BA00020E030E040E85FE30E947103882344F4A2
:103BB000FE01EF51FE4F81E090E09183808364C06D
:103BC000FE01ED51FE4F608171818281938120E081
:103BD0003FEF4FE757E40E94110318160CF043C063
:103BE000FE01E951FE4F608171818281938120E065
:103BF00030E040E251E40E941702DC01CB018E016B
:103C00000F511E4FBC01CD010E944100DC01CB01D0
:103C1000F801918380831FC0FE01E152FE4F88ECC2
:103C200090E091838083FE01E152FE4F808191817B
:103C30000197F1F7FE01E152FE4F91838083DE018F
:103C4000AF51BE4FFE01EF51FE4F80819181019730
:103C500011969C938E93FE01EF51FE4F80819181CE
:103C60000097D1F627C08E010F511E4FFE01ED5176
:103C7000FE4F60817181828193810E944100DC014D
:103C8000CB01F80191838083DE01A352BE4FFE0178
:103C9000EF51FE4F808191818D939C93FE01E35201
:103CA000FE4F808191810197F1F7FE01E352FE4FB3
:103CB00091838083FE01E751FD4F60817181828194
:103CC0000E94320AFE01EA51FD4F608171818281BA
:103CD0000E94540AFE01E752FE4F80E090E0AAE7FE
:103CE000B3E480839183A283B3838E010B521E4F72
:103CF000FE01E752FE4F608171818281938120E055
:103D000030E04AEF54E40E941702DC01CB01F801D5
:103D100080839183A283B383FE01EB52FE4F6081C7
:103D200071818281938120E030E040E85FE30E946E
:103D30007103882344F4FE01ED52FE4F81E090E0D0
:103D40009183808364C0FE01EB52FE4F60817181DC
:103D50008281938120E03FEF4FE757E40E941103F7
:103D600018160CF043C0FE01E752FE4F60817181CE
:103D70008281938120E030E040E251E40E9417020A
:103D8000DC01CB018E010D521E4FBC01CD010E9402
:103D90004100DC01CB01F801918380831FC0FE014B
:103DA000EF52FE4F88EC90E091838083FE01EF524A
:103DB000FE4F808191810197F1F7FE01EF52FE4F96
:103DC00091838083DE01AD52BE4FFE01ED52FE4F66
:103DD00080819181019711969C938E93FE01ED5203
:103DE000FE4F808191810097D1F627C08E010D5240
:103DF0001E4FFE01EB52FE4F6081718182819381E3
:103E00000E944100DC01CB01F80191838083DE0137
:103E1000A153BE4FFE01ED52FE4F808191818D93E3
:103E20009C93FE01E153FE4F808191810197F1F750
:103E3000FE01E153FE4F91838083FE01E451FD4F6B
:103E40006081718182810E94320AFE01E751FD4F3B
:103E50006081718182810E94540AFE01E553FE4F08
:103E600080E090E0AAE7B3E480839183A283B383E8
:103E70008E0109531E4FFE01E553FE4F6081718193
:103E80008281938120E030E04AEF54E40E941702DF
:103E9000DC01CB01F80180839183A283B383FE010F
:103EA000E953FE4F608171818281938120E030E08F
:103EB00040E85FE30E947103882344F4FE01EB5362
:103EC000FE4F81E090E09183808364C0FE01E9535E
:103ED000FE4F608171818281938120E03FEF4FE747
:103EE00057E40E94110318160CF043C0FE01E5537D
:103EF000FE4F608171818281938120E030E040E259
:103F000051E40E941702DC01CB018E010B531E4FBE
:103F1000BC01CD010E944100DC01CB01F80191837D
:103F200080831FC0FE01ED53FE4F88EC90E091832B
:103F30008083FE01ED53FE4F808191810197F1F75F
:103F4000FE01ED53FE4F91838083DE01AB53BE4FE4
:103F5000FE01EB53FE4F80819181019711969C9356
:103F60008E93FE01EB53FE4F808191810097D1F635
:103F700027C08E010B531E4FFE01E953FE4F608197
:103F80007181828193810E944100DC01CB01F801A3
:103F900091838083DE01AF53BE4FFE01EB53FE4F92
:103FA000808191818D939C93FE01EF53FE4F808120
:103FB00091810197F1F7FE01EF53FE4F91838083CA
:103FC000DE01A754BD4FFE01E754FD4F8081918172
:103FD000019611969C938E93FE01E754FD4F8081CC
:103FE0009181823091050CF4D3C980E060E00E9499
:103FF00022090C945612FE01E853FD4F6081718135
:1040000082810E94A80A813009F06DC3FE01E95443
:10401000FD4F1182108258C3FE01E952FD4F6081AD
:10402000718182810E94540AFE01E451FD4F60813A
:10403000718182810E94540AFE01E052FD4F60812D
:10404000718182810E94320AFE01ED51FD4F608133
:10405000718182810E94320AFE01E354FE4F80E0AA
:1040600090E0AAE7B3E480839183A283B3838E01B7
:1040700007541E4FFE01E354FE4F6081718182811F
:10408000938120E030E04AEF54E40E941702DC0103
:10409000CB01F80180839183A283B383FE01E754AF
:1040A000FE4F608171818281938120E030E040E8A1
:1040B0005FE30E947103882344F4FE01E954FE4F3C
:1040C00081E090E09183808364C0FE01E754FE4F5D
:1040D000608171818281938120E03FEF4FE757E457
:1040E0000E94110318160CF043C0FE01E354FE4F6A
:1040F000608171818281938120E030E040E251E46F
:104100000E941702DC01CB018E0109541E4FBC0135
:10411000CD010E944100DC01CB01F8019183808335
:104120001FC0FE01EB54FE4F88EC90E0918380832A
:10413000FE01EB54FE4F808191810197F1F7FE0162
:10414000EB54FE4F91838083DE01A954BE4FFE01E4
:10415000E954FE4F80819181019711969C938E9333
:10416000FE01E954FE4F808191810097D1F627C06E
:104170008E0109541E4FFE01E754FE4F608171818C
:10418000828193810E944100DC01CB01F80191837F
:104190008083DE01AD54BE4FFE01E954FE4F8081A5
:1041A00091818D939C93FE01ED54FE4F808191810E
:1041B0000197F1F7FE01ED54FE4F91838083FE01DC
:1041C000ED51FD4F6081718182810E94540AFE0190
:1041D000E052FD4F6081718182810E94540AFE018C
:1041E000E352FD4F6081718182810E94320AFE019B
:1041F000EA51FD4F6081718182810E94320AFE0185
:10420000E155FE4F80E090E0AAE7B3E4808391831C
:10421000A283B3838E0105551E4FFE01E155FE4F6B
:10422000608171818281938120E030E04AEF54E423
:104230000E941702DC01CB01F80180839183A283E5
:10424000B383FE01E555FE4F6081718182819381C8
:1042500020E030E040E85FE30E947103882344F4EB
:10426000FE01E755FE4F81E090E09183808364C0BA
:10427000FE01E555FE4F608171818281938120E0CE
:104280003FEF4FE757E40E94110318160CF043C0AC
:10429000FE01E155FE4F608171818281938120E0B2
:1042A00030E040E251E40E941702DC01CB018E01B4
:1042B00007551E4FBC01CD010E944100DC01CB011E
:1042C000F801918380831FC0FE01E955FE4F88EC01
:1042D00090E091838083FE01E955FE4F80819181BA
:1042E0000197F1F7FE01E955FE4F91838083DE01CE
:1042F000A755BE4FFE01E755FE4F80819181019782
:1043000011969C938E93FE01E755FE4F808191811B
:104310000097D1F627C08E0107551E4FFE01E555C7
:10432000FE4F60817181828193810E944100DC0196
:10433000CB01F80191838083DE01AB55BE4FFE01B6
:10434000E755FE4F808191818D939C93FE01EB5543
:10435000FE4F808191810197F1F7FE01EB55FE4FF1
:1043600091838083FE01EA51FD4F608171818281DA
:104370000E94540AFE01E352FD4F608171818281E7
:104380000E94540AFE01E652FD4F608171818281D4
:104390000E94320AFE01E751FD4F608171818281E6
:1043A0000E94320AFE01EF55FE4F80E090E0AAE73E
:1043B000B3E480839183A283B3838E0103561E4F9F
:1043C000FE01EF55FE4F608171818281938120E073
:1043D00030E04AEF54E40E941702DC01CB01F801FF
:1043E00080839183A283B383FE01E356FE4F6081F5
:1043F00071818281938120E030E040E85FE30E9498
:104400007103882344F4FE01E556FE4F81E090E0FD
:104410009183808364C0FE01E356FE4F6081718109
:104420008281938120E03FEF4FE757E40E94110320
:1044300018160CF043C0FE01EF55FE4F60817181EC
:104440008281938120E030E040E251E40E94170233
:10445000DC01CB018E0105561E4FBC01CD010E942F
:104460004100DC01CB01F801918380831FC0FE0174
:10447000E756FE4F88EC90E091838083FE01E7567B
:10448000FE4F808191810197F1F7FE01E756FE4FC3
:1044900091838083DE01A556BE4FFE01E556FE4F97
:1044A00080819181019711969C938E93FE01E55630
:1044B000FE4F808191810097D1F627C08E0105566D
:1044C0001E4FFE01E356FE4F608171818281938110
:1044D0000E944100DC01CB01F80191838083DE0161
:1044E000A956BE4FFE01E556FE4F808191818D9306
:1044F0009C93FE01E956FE4F808191810197F1F76F
:10450000FE01E956FE4F91838083FE01E652FD4F86
:104510006081718182810E94540AFE01E751FD4F42
:104520006081718182810E94540AFE01E952FD4F2F
:104530006081718182810E94320AFE01E451FD4F47
:104540006081718182810E94320AFE01ED56FE4F28
:1045500080E090E0AAE7B3E480839183A283B383F1
:104560008E0101571E4FFE01ED56FE4F6081718195
:104570008281938120E030E04AEF54E40E941702E8
:10458000DC01CB01F80180839183A283B383FE0118
:10459000E157FE4F608171818281938120E030E09C
:1045A00040E85FE30E947103882344F4FE01E3576F
:1045B000FE4F81E090E09183808364C0FE01E1576B
:1045C000FE4F608171818281938120E03FEF4FE750
:1045D00057E40E94110318160CF043C0FE01ED567B
:1045E000FE4F608171818281938120E030E040E262
:1045F00051E40E941702DC01CB018E0103571E4FCC
:10460000BC01CD010E944100DC01CB01F801918386
:1046100080831FC0FE01E557FE4F88EC90E0918338
:104620008083FE01E557FE4F808191810197F1F76C
:10463000FE01E557FE4F91838083DE01A357BE4FF5
:10464000FE01E357FE4F80819181019711969C9363
:104650008E93FE01E357FE4F808191810097D1F642
:1046600027C08E0103571E4FFE01E157FE4F6081A8
:104670007181828193810E944100DC01CB01F801AC
:1046800091838083DE01A757BE4FFE01E357FE4FA3
:10469000808191818D939C93FE01E757FE4F80812D
:1046A00091810197F1F7FE01E757FE4F91838083D7
:1046B000DE01A954BD4FFE01E954FD4F8081918177
:1046C000019611969C938E93FE01E954FD4F8081D3
:1046D0009181823091050CF49FCC80E060E00E94D3
:1046E00022090C945612FE01E553FD4F6081718141
:1046F00082810E94A80A813009F06DC3FE01EB544B
:10470000FD4F1182108258C3FE01E052FD4F6081BF
:10471000718182810E94540AFE01ED51FD4F60813A
:10472000718182810E94540AFE01E952FD4F60812D
:10473000718182810E94320AFE01E451FD4F608145
:10474000718182810E94320AFE01EB57FE4F80E0A8
:1047500090E0AAE7B3E480839183A283B3838E01C0
:104760000F571E4FFE01EB57FE4F60817181828112
:10477000938120E030E04AEF54E40E941702DC010C
:10478000CB01F80180839183A283B383FE01EF57AD
:10479000FE4F608171818281938120E030E040E8AA
:1047A0005FE30E947103882344F4FE01E158FE4F49
:1047B00081E090E09183808364C0FE01EF57FE4F5B
:1047C000608171818281938120E03FEF4FE757E460
:1047D0000E94110318160CF043C0FE01EB57FE4F68
:1047E000608171818281938120E030E040E251E478
:1047F0000E941702DC01CB018E0101581E4FBC0143
:10480000CD010E944100DC01CB01F801918380833E
:104810001FC0FE01E358FE4F88EC90E09183808337
:10482000FE01E358FE4F808191810197F1F7FE016F
:10483000E358FE4F91838083DE01A158BE4FFE01F5
:10484000E158FE4F80819181019711969C938E9340
:10485000FE01E158FE4F808191810097D1F627C07B
:104860008E0101581E4FFE01EF57FE4F608171818E
:10487000828193810E944100DC01CB01F801918388
:104880008083DE01A558BE4FFE01E158FE4F8081B6
:1048900091818D939C93FE01E558FE4F808191811B
:1048A0000197F1F7FE01E558FE4F91838083FE01E9
:1048B000E952FD4F6081718182810E94540AFE019C
:1048C000E451FD4F6081718182810E94540AFE0192
:1048D000E652FD4F6081718182810E94320AFE01A1
:1048E000E751FD4F6081718182810E94320AFE0191
:1048F000E958FE4F80E090E0AAE7B3E4808391831B
:10490000A283B3838E010D581E4FFE01E958FE4F5E
:10491000608171818281938120E030E04AEF54E42C
:104920000E941702DC01CB01F80180839183A283EE
:10493000B383FE01ED58FE4F6081718182819381C6
:1049400020E030E040E85FE30E947103882344F4F4
:10495000FE01EF58FE4F81E090E09183808364C0B8
:10496000FE01ED58FE4F608171818281938120E0CC
:104970003FEF4FE757E40E94110318160CF043C0B5
:10498000FE01E958FE4F608171818281938120E0B0
:1049900030E040E251E40E941702DC01CB018E01BD
:1049A0000F581E4FBC01CD010E944100DC01CB011C
:1049B000F801918380831FC0FE01E159FE4F88EC0E
:1049C00090E091838083FE01E159FE4F80819181C7
:1049D0000197F1F7FE01E159FE4F91838083DE01DB
:1049E000AF58BE4FFE01EF58FE4F80819181019775
:1049F00011969C938E93FE01EF58FE4F808191811A
:104A00000097D1F627C08E010F581E4FFE01ED58BA
:104A1000FE4F60817181828193810E944100DC019F
:104A2000CB01F80191838083DE01A359BE4FFE01C3
:104A3000EF58FE4F808191818D939C93FE01E35945
:104A4000FE4F808191810197F1F7FE01E359FE4FFE
:104A500091838083FE01E652FD4F608171818281E6
:104A60000E94540AFE01E751FD4F608171818281ED
:104A70000E94540AFE01E352FD4F608171818281E0
:104A80000E94320AFE01EA51FD4F608171818281EC
:104A90000E94320AFE01E759FE4F80E090E0AAE74B
:104AA000B3E480839183A283B3838E010B591E4F9D
:104AB000FE01E759FE4F608171818281938120E080
:104AC00030E04AEF54E40E941702DC01CB01F80108
:104AD00080839183A283B383FE01EB59FE4F6081F3
:104AE00071818281938120E030E040E85FE30E94A1
:104AF0007103882344F4FE01ED59FE4F81E090E0FC
:104B00009183808364C0FE01EB59FE4F6081718107
:104B10008281938120E03FEF4FE757E40E94110329
:104B200018160CF043C0FE01E759FE4F60817181F9
:104B30008281938120E030E040E251E40E9417023C
:104B4000DC01CB018E010D591E4FBC01CD010E942D
:104B50004100DC01CB01F801918380831FC0FE017D
:104B6000EF59FE4F88EC90E091838083FE01EF596E
:104B7000FE4F808191810197F1F7FE01EF59FE4FC1
:104B800091838083DE01AD59BE4FFE01ED59FE4F8A
:104B900080819181019711969C938E93FE01ED592E
:104BA000FE4F808191810097D1F627C08E010D596B
:104BB0001E4FFE01EB59FE4F60817181828193810E
:104BC0000E944100DC01CB01F80191838083DE016A
:104BD000A15ABE4FFE01ED59FE4F808191818D9308
:104BE0009C93FE01E15AFE4F808191810197F1F77C
:104BF000FE01E15AFE4F91838083FE01E352FD4F97
:104C00006081718182810E94540AFE01EA51FD4F48
:104C10006081718182810E94540AFE01E052FD4F41
:104C20006081718182810E94320AFE01ED51FD4F47
:104C30006081718182810E94320AFE01E55AFE4F35
:104C400080E090E0AAE7B3E480839183A283B383FA
:104C50008E01095A1E4FFE01E55AFE4F6081718197
:104C60008281938120E030E04AEF54E40E941702F1
:104C7000DC01CB01F80180839183A283B383FE0121
:104C8000E95AFE4F608171818281938120E030E09A
:104C900040E85FE30E947103882344F4FE01EB5A6D
:104CA000FE4F81E090E09183808364C0FE01E95A69
:104CB000FE4F608171818281938120E03FEF4FE759
:104CC00057E40E94110318160CF043C0FE01E55A88
:104CD000FE4F608171818281938120E030E040E26B
:104CE00051E40E941702DC01CB018E010B5A1E4FCA
:104CF000BC01CD010E944100DC01CB01F801918390
:104D000080831FC0FE01ED5AFE4F88EC90E0918336
:104D10008083FE01ED5AFE4F808191810197F1F76A
:104D2000FE01ED5AFE4F91838083DE01AB5ABE4FE8
:104D3000FE01EB5AFE4F80819181019711969C9361
:104D40008E93FE01EB5AFE4F808191810097D1F640
:104D500027C08E010B5A1E4FFE01E95AFE4F60819B
:104D60007181828193810E944100DC01CB01F801B5
:104D700091838083DE01AF5ABE4FFE01EB5AFE4F96
:104D8000808191818D939C93FE01EF5AFE4F80812B
:104D900091810197F1F7FE01EF5AFE4F91838083D5
:104DA000DE01AB54BD4FFE01EB54FD4F808191817C
:104DB000019611969C938E93FE01EB54FD4F8081DA
:104DC0009181823091050CF49FCC80E060E00E94DC
:104DD00022090C945612FE01E253FD4F608171814D
:104DE00082810E94A80A813009F007C2FE01ED54B9
:104DF000FD4F11821082F2C1FE01E352FD4F60812E
:104E0000718182810E94540AFE01EA51FD4F608146
:104E1000718182810E94540AFE01E652FD4F608139
:104E2000718182810E94540AFE01E751FD4F608129
:104E3000718182810E94540AFE01E052FD4F60811F
:104E4000718182810E94320AFE01ED51FD4F608125
:104E5000718182810E94320AFE01E952FD4F608118
:104E6000718182810E94320AFE01E451FD4F60810E
:104E7000718182810E94320AFE01E35BFE4F80E075
:104E800090E0AAE7B3E480839183A283B3838E0189
:104E9000075B1E4FFE01E35BFE4F608171818281E3
:104EA000938120E030E04AEF54E40E941702DC01D5
:104EB000CB01F80180839183A283B383FE01E75B7A
:104EC000FE4F608171818281938120E030E040E873
:104ED0005FE30E947103882344F4FE01E95BFE4F07
:104EE00081E090E09183808364C0FE01E75BFE4F28
:104EF000608171818281938120E03FEF4FE757E429
:104F00000E94110318160CF043C0FE01E35BFE4F34
:104F1000608171818281938120E030E040E251E440
:104F20000E941702DC01CB018E01095B1E4FBC0100
:104F3000CD010E944100DC01CB01F8019183808307
:104F40001FC0FE01EB5BFE4F88EC90E091838083F5
:104F5000FE01EB5BFE4F808191810197F1F7FE012D
:104F6000EB5BFE4F91838083DE01A95BBE4FFE01A8
:104F7000E95BFE4F80819181019711969C938E93FE
:104F8000FE01E95BFE4F808191810097D1F627C039
:104F90008E01095B1E4FFE01E75BFE4F6081718150
:104FA000828193810E944100DC01CB01F801918351
:104FB0008083DE01AD5BBE4FFE01E95BFE4F808169
:104FC00091818D939C93FE01ED5BFE4F80819181D9
:104FD0000197F1F7FE01ED5BFE4F91838083FE01A7
:104FE000ED51FD4F6081718182810E94540AFE0162
:104FF000E052FD4F6081718182810E94540AFE015E
:10500000E952FD4F6081718182810E94540AFE0144
:10501000E451FD4F6081718182810E94540AFE013A
:10502000E352FD4F6081718182810E94320AFE014C
:10503000EA51FD4F6081718182810E94320AFE0136
:10504000E652FD4F6081718182810E94320AFE0129
:10505000E751FD4F6081718182810E94320AFE0119
:10506000E15CFE4F80E090E0AAE7B3E480839183A7
:10507000A283B3838E01055C1E4FFE01E15CFE4FEF
:10508000608171818281938120E030E04AEF54E4B5
:105090000E941702DC01CB01F80180839183A28377
:1050A000B383FE01E55CFE4F608171818281938153
:1050B00020E030E040E85FE30E947103882344F47D
:1050C000FE01E75CFE4F81E090E09183808364C045
:1050D000FE01E55CFE4F608171818281938120E059
:1050E0003FEF4FE757E40E94110318160CF043C03E
:1050F000FE01E15CFE4F608171818281938120E03D
:1051000030E040E251E40E941702DC01CB018E0145
:10511000075C1E4FBC01CD010E944100DC01CB01A8
:10512000F801918380831FC0FE01E95CFE4F88EC8B
:1051300090E091838083FE01E95CFE4F8081918144
:105140000197F1F7FE01E95CFE4F91838083DE0158
:10515000A75CBE4FFE01E75CFE4F80819181019705
:1051600011969C938E93FE01E75CFE4F80819181A6
:105170000097D1F627C08E01075C1E4FFE01E55C4B
:10518000FE4F60817181828193810E944100DC0128
:10519000CB01F80191838083DE01AB5CBE4FFE0141
:1051A000E75CFE4F808191818D939C93FE01EB5CC7
:1051B000FE4F808191810197F1F7FE01EB5CFE4F7C
:1051C00091838083DE01AD54BD4FFE01ED54FD4F50
:1051D00080819181019611969C938E93FE01ED54EE
:1051E000FD4F80819181823091050CF405CE80E0E5
:1051F00060E00E9422090C945612FE01EF52FD4F0E
:105200006081718182810E94A80A813009F031C6D3
:10521000FE01EF54FD4F118210821CC6FE01E652C2
:10522000FD4F6081718182810E94540AFE01E35228
:10523000FD4F6081718182810E94540AFE01E0521B
:10524000FD4F6081718182810E94540AFE01ED51FF
:10525000FD4F6081718182810E94540AFE01EA51F2
:10526000FD4F6081718182810E94540AFE01E751E5
:10527000FD4F6081718182810E94540AFE01E451D8
:10528000FD4F6081718182810E94540AFE01E952C2
:10529000FD4F6081718182810E94320AFE01EF5CC4
:1052A000FE4F80E090E0AAE7B3E480839183A2837D
:1052B000B3838E01035D1E4FFE01EF5CFE4F6081E4
:1052C00071818281938120E030E04AEF54E40E94B2
:1052D0001702DC01CB01F80180839183A283B383A1
:1052E000FE01E35DFE4F608171818281938120E048
:1052F00030E040E85FE30E947103882344F4FE013C
:10530000E55DFE4F81E090E09183808364C0FE0103
:10531000E35DFE4F608171818281938120E03FEFE8
:105320004FE757E40E94110318160CF043C0FE012A
:10533000EF5CFE4F608171818281938120E030E0DB
:1053400040E251E40E941702DC01CB018E01055DB1
:105350001E4FBC01CD010E944100DC01CB01F801D0
:10536000918380831FC0FE01E75DFE4F88EC90E0D3
:1053700091838083FE01E75DFE4F808191810197DB
:10538000F1F7FE01E75DFE4F91838083DE01A55DAD
:10539000BE4FFE01E55DFE4F808191810197119620
:1053A0009C938E93FE01E55DFE4F80819181009775
:1053B000D1F627C08E01055D1E4FFE01E35DFE4F55
:1053C00060817181828193810E944100DC01CB0167
:1053D000F80191838083DE01A95DBE4FFE01E55D8A
:1053E000FE4F808191818D939C93FE01E95DFE4F7C
:1053F000808191810197F1F7FE01E95DFE4F918374
:105400008083FE01E652FD4F6081718182810E949E
:10541000320AFE01ED5DFE4F80E090E0AAE7B3E4C2
:1054200080839183A283B3838E01015E1E4FFE01B0
:10543000ED5DFE4F608171818281938120E030E0DB
:105440004AEF54E40E941702DC01CB01F80180838B
:105450009183A283B383FE01E15EFE4F608171817F
:105460008281938120E030E040E85FE30E94710395
:10547000882344F4FE01E35EFE4F81E090E09183D7
:10548000808364C0FE01E15EFE4F60817181828194
:10549000938120E03FEF4FE757E40E941103181675
:1054A0000CF043C0FE01ED5DFE4F60817181828191
:1054B000938120E030E040E251E40E941702DC01D9
:1054C000CB018E01035E1E4FBC01CD010E94410045
:1054D000DC01CB01F801918380831FC0FE01E55EF2
:1054E000FE4F88EC90E091838083FE01E55EFE4FE5
:1054F000808191810197F1F7FE01E55EFE4F918376
:105500008083DE01A35EBE4FFE01E35EFE4F80811D
:105510009181019711969C938E93FE01E35EFE4F5D
:10552000808191810097D1F627C08E01035E1E4FC6
:10553000FE01E15EFE4F60817181828193810E9454
:105540004100DC01CB01F80191838083DE01A75E7D
:10555000BE4FFE01E35EFE4F808191818D939C934F
:10556000FE01E75EFE4F808191810197F1F7FE0118
:10557000E75EFE4F91838083FE01E352FD4F608121
:10558000718182810E94320AFE01EB5EFE4F80E053
:1055900090E0AAE7B3E480839183A283B3838E0172
:1055A0000F5E1E4FFE01EB5EFE4F608171818281B6
:1055B000938120E030E04AEF54E40E941702DC01BE
:1055C000CB01F80180839183A283B383FE01EF5E58
:1055D000FE4F608171818281938120E030E040E85C
:1055E0005FE30E947103882344F4FE01E15FFE4FF4
:1055F00081E090E09183808364C0FE01EF5EFE4F06
:10560000608171818281938120E03FEF4FE757E411
:105610000E94110318160CF043C0FE01EB5EFE4F12
:10562000608171818281938120E030E040E251E429
:105630000E941702DC01CB018E01015F1E4FBC01ED
:10564000CD010E944100DC01CB01F80191838083F0
:105650001FC0FE01E35FFE4F88EC90E091838083E2
:10566000FE01E35FFE4F808191810197F1F7FE011A
:10567000E35FFE4F91838083DE01A15FBE4FFE0199
:10568000E15FFE4F80819181019711969C938E93EB
:10569000FE01E15FFE4F808191810097D1F627C026
:1056A0008E01015F1E4FFE01EF5EFE4F6081718132
:1056B000828193810E944100DC01CB01F80191833A
:1056C0008083DE01A55FBE4FFE01E15FFE4F80815A
:1056D00091818D939C93FE01E55FFE4F80819181C6
:1056E0000197F1F7FE01E55FFE4F91838083FE0194
:1056F000E052FD4F6081718182810E94320AFE0179
:10570000E95FFE4F80E090E0AAE7B3E480839183F5
:10571000A283B3838E010D5F1E4FFE01E95FFE4F32
:10572000608171818281938120E030E04AEF54E40E
:105730000E941702DC01CB01F80180839183A283D0
:10574000B383FE01ED5FFE4F6081718182819381A1
:1057500020E030E040E85FE30E947103882344F4D6
:10576000FE01EF5FFE4F81E090E09183808364C093
:10577000FE01ED5FFE4F608171818281938120E0A7
:105780003FEF4FE757E40E94110318160CF043C097
:10579000FE01E95FFE4F608171818281938120E08B
:1057A00030E040E251E40E941702DC01CB018E019F
:1057B0000F5F1E4FBC01CD010E944100DC01CB01F7
:1057C000F801918380831FC0FE01E150FF4F88ECF8
:1057D00090E091838083FE01E150FF4F80819181B1
:1057E0000197F1F7FE01E150FF4F91838083DE01C5
:1057F000AF5FBE4FFE01EF5FFE4F80819181019749
:1058000011969C938E93FE01EF5FFE4F80819181F4
:105810000097D1F627C08E010F5F1E4FFE01ED5F8E
:10582000FE4F60817181828193810E944100DC0181
:10583000CB01F80191838083DE01A350BF4FFE01AD
:10584000EF5FFE4F808191818D939C93FE01E35029
:10585000FF4F808191810197F1F7FE01E350FF4FE7
:1058600091838083FE01ED51FD4F608171818281C2
:105870000E94320AFE01E750FF4F80E090E0AAE765
:10588000B3E480839183A283B3838E010B501F4FB7
:10589000FE01E750FF4F608171818281938120E09A
:1058A00030E04AEF54E40E941702DC01CB01F8011A
:1058B00080839183A283B383FE01EB50FF4F60810D
:1058C00071818281938120E030E040E85FE30E94B3
:1058D0007103882344F4FE01ED50FF4F81E090E016
:1058E0009183808364C0FE01EB50FF4F6081718122
:1058F0008281938120E03FEF4FE757E40E9411033C
:1059000018160CF043C0FE01E750FF4F6081718113
:105910008281938120E030E040E251E40E9417024E
:10592000DC01CB018E010D501F4FBC01CD010E9447
:105930004100DC01CB01F801918380831FC0FE018F
:10594000EF50FF4F88EC90E091838083FE01EF5091
:10595000FF4F808191810197F1F7FE01EF50FF4FDA
:1059600091838083DE01AD50BF4FFE01ED50FF4FAC
:1059700080819181019711969C938E93FE01ED5049
:10598000FF4F808191810097D1F627C08E010D5085
:105990001F4FFE01EB50FF4F608171818281938127
:1059A0000E944100DC01CB01F80191838083DE017C
:1059B000A151BF4FFE01ED50FF4F808191818D932A
:1059C0009C93FE01E151FF4F808191810197F1F796
:1059D000FE01E151FF4F91838083FE01EA51FD4FAB
:1059E0006081718182810E94320AFE01E551FF4F80
:1059F00080E090E0AAE7B3E480839183A283B3833D
:105A00008E0109511F4FFE01E551FF4F60817181E9
:105A10008281938120E030E04AEF54E40E94170233
:105A2000DC01CB01F80180839183A283B383FE0163
:105A3000E951FF4F608171818281938120E030E0E4
:105A400040E85FE30E947103882344F4FE01EB51B8
:105A5000FF4F81E090E09183808364C0FE01E951B3
:105A6000FF4F608171818281938120E03FEF4FE79A
:105A700057E40E94110318160CF043C0FE01E551D3
:105A8000FF4F608171818281938120E030E040E2AC
:105A900051E40E941702DC01CB018E010B511F4F14
:105AA000BC01CD010E944100DC01CB01F8019183D2
:105AB00080831FC0FE01ED51FF4F88EC90E0918381
:105AC0008083FE01ED51FF4F808191810197F1F7B5
:105AD000FE01ED51FF4F91838083DE01AB51BF4F3B
